{
  "contractName": "Casino",
  "abi": [
    {
      "constant": true,
      "inputs": [],
      "name": "numberOfBets",
      "outputs": [
        {
          "name": "",
          "type": "uint256"
        }
      ],
      "payable": false,
      "stateMutability": "view",
      "type": "function"
    },
    {
      "constant": true,
      "inputs": [
        {
          "name": "",
          "type": "address"
        }
      ],
      "name": "playerInfo",
      "outputs": [
        {
          "name": "amountBet",
          "type": "uint256"
        },
        {
          "name": "numberSelected",
          "type": "uint256"
        }
      ],
      "payable": false,
      "stateMutability": "view",
      "type": "function"
    },
    {
      "constant": true,
      "inputs": [],
      "name": "owner",
      "outputs": [
        {
          "name": "",
          "type": "address"
        }
      ],
      "payable": false,
      "stateMutability": "view",
      "type": "function"
    },
    {
      "constant": true,
      "inputs": [],
      "name": "minimumBet",
      "outputs": [
        {
          "name": "",
          "type": "uint256"
        }
      ],
      "payable": false,
      "stateMutability": "view",
      "type": "function"
    },
    {
      "constant": true,
      "inputs": [],
      "name": "maxAmountOfBets",
      "outputs": [
        {
          "name": "",
          "type": "uint256"
        }
      ],
      "payable": false,
      "stateMutability": "view",
      "type": "function"
    },
    {
      "constant": true,
      "inputs": [
        {
          "name": "",
          "type": "uint256"
        }
      ],
      "name": "players",
      "outputs": [
        {
          "name": "",
          "type": "address"
        }
      ],
      "payable": false,
      "stateMutability": "view",
      "type": "function"
    },
    {
      "constant": true,
      "inputs": [],
      "name": "totalBet",
      "outputs": [
        {
          "name": "",
          "type": "uint256"
        }
      ],
      "payable": false,
      "stateMutability": "view",
      "type": "function"
    },
    {
      "inputs": [
        {
          "name": "_minimumBet",
          "type": "uint256"
        }
      ],
      "payable": false,
      "stateMutability": "nonpayable",
      "type": "constructor"
    },
    {
      "constant": false,
      "inputs": [],
      "name": "kill",
      "outputs": [],
      "payable": false,
      "stateMutability": "nonpayable",
      "type": "function"
    },
    {
      "constant": true,
      "inputs": [
        {
          "name": "player",
          "type": "address"
        }
      ],
      "name": "checkPlayerExists",
      "outputs": [
        {
          "name": "",
          "type": "bool"
        }
      ],
      "payable": false,
      "stateMutability": "view",
      "type": "function"
    },
    {
      "constant": false,
      "inputs": [
        {
          "name": "numberSelected",
          "type": "uint256"
        }
      ],
      "name": "bet",
      "outputs": [],
      "payable": true,
      "stateMutability": "payable",
      "type": "function"
    },
    {
      "constant": false,
      "inputs": [],
      "name": "generateNumberWinner",
      "outputs": [],
      "payable": false,
      "stateMutability": "nonpayable",
      "type": "function"
    },
    {
      "constant": false,
      "inputs": [
        {
          "name": "numberWinner",
          "type": "uint256"
        }
      ],
      "name": "distributePrizes",
      "outputs": [],
      "payable": false,
      "stateMutability": "nonpayable",
      "type": "function"
    },
    {
      "constant": false,
      "inputs": [],
      "name": "resetData",
      "outputs": [],
      "payable": false,
      "stateMutability": "nonpayable",
      "type": "function"
    }
  ],
  "bytecode": "0x60606040526064600455341561001457600080fd5b604051602080610a7083398101604052808051906020019091905050336000806101000a81548173ffffffffffffffffffffffffffffffffffffffff021916908373ffffffffffffffffffffffffffffffffffffffff16021790555060008114151561008257806001819055505b506109de806100926000396000f3006060604052600436106100c5576000357c0100000000000000000000000000000000000000000000000000000000900463ffffffff1680630a50e361146100ca5780632ca8c6d3146100df5780634081d9161461010857806341c0e1b514610159578063478c4e0e1461016e5780634b114691146101835780636ca3fc3b146101d75780637365870b146101fa5780638da5cb5b14610212578063c38a8afd14610267578063e08a96cd14610290578063f71d96cb146102b9578063fe5e18531461031c575b600080fd5b34156100d557600080fd5b6100dd610345565b005b34156100ea57600080fd5b6100f2610365565b6040518082815260200191505060405180910390f35b341561011357600080fd5b61013f600480803573ffffffffffffffffffffffffffffffffffffffff1690602001909190505061036b565b604051808215151515815260200191505060405180910390f35b341561016457600080fd5b61016c61040f565b005b341561017957600080fd5b6101816104a0565b005b341561018e57600080fd5b6101ba600480803573ffffffffffffffffffffffffffffffffffffffff169060200190919050506104c2565b604051808381526020018281526020019250505060405180910390f35b34156101e257600080fd5b6101f860048080359060200190919050506104e6565b005b6102106004808035906020019091905050610727565b005b341561021d57600080fd5b610225610880565b604051808273ffffffffffffffffffffffffffffffffffffffff1673ffffffffffffffffffffffffffffffffffffffff16815260200191505060405180910390f35b341561027257600080fd5b61027a6108a5565b6040518082815260200191505060405180910390f35b341561029b57600080fd5b6102a36108ab565b6040518082815260200191505060405180910390f35b34156102c457600080fd5b6102da60048080359060200190919050506108b1565b604051808273ffffffffffffffffffffffffffffffffffffffff1673ffffffffffffffffffffffffffffffffffffffff16815260200191505060405180910390f35b341561032757600080fd5b61032f6108f0565b6040518082815260200191505060405180910390f35b60006001600a4381151561035557fe5b06019050610362816104e6565b50565b60035481565b600080600090505b600580549050811015610404578273ffffffffffffffffffffffffffffffffffffffff166005828154811015156103a657fe5b906000526020600020900160009054906101000a900473ffffffffffffffffffffffffffffffffffffffff1673ffffffffffffffffffffffffffffffffffffffff1614156103f75760019150610409565b8080600101915050610373565b600091505b50919050565b6000809054906101000a900473ffffffffffffffffffffffffffffffffffffffff1673ffffffffffffffffffffffffffffffffffffffff163373ffffffffffffffffffffffffffffffffffffffff16141561049e576000809054906101000a900473ffffffffffffffffffffffffffffffffffffffff1673ffffffffffffffffffffffffffffffffffffffff16ff5b565b60006005816104af91906108f6565b5060006002819055506000600381905550565b60066020528060005260406000206000915090508060000154908060010154905082565b6104ee610922565b6000806000806000809450600093505b6005805490508410156106405760058481548110151561051a57fe5b906000526020600020900160009054906101000a900473ffffffffffffffffffffffffffffffffffffffff16925086600660008573ffffffffffffffffffffffffffffffffffffffff1673ffffffffffffffffffffffffffffffffffffffff1681526020019081526020016000206001015414156105e1578286866064811015156105a157fe5b602002019073ffffffffffffffffffffffffffffffffffffffff16908173ffffffffffffffffffffffffffffffffffffffff168152505084806001019550505b600660008473ffffffffffffffffffffffffffffffffffffffff1673ffffffffffffffffffffffffffffffffffffffff1681526020019081526020016000206000808201600090556001820160009055505083806001019450506104fe565b600060058161064f91906108f6565b50606460025481151561065e57fe5b049150600090505b8481101561071657600073ffffffffffffffffffffffffffffffffffffffff16868260648110151561069457fe5b602002015173ffffffffffffffffffffffffffffffffffffffff161415156107095785816064811015156106c457fe5b602002015173ffffffffffffffffffffffffffffffffffffffff166108fc839081150290604051600060405180830381858888f19350505050151561070857600080fd5b5b8080600101915050610666565b61071e6104a0565b50505050505050565b6107303361036b565b15151561073c57600080fd5b6001811015801561074e5750600a8111155b151561075957600080fd5b600154341015151561076a57600080fd5b34600660003373ffffffffffffffffffffffffffffffffffffffff1673ffffffffffffffffffffffffffffffffffffffff1681526020019081526020016000206000018190555080600660003373ffffffffffffffffffffffffffffffffffffffff1673ffffffffffffffffffffffffffffffffffffffff168152602001908152602001600020600101819055506003600081548092919060010191905055506005805480600101828161081e9190610961565b9160005260206000209001600033909190916101000a81548173ffffffffffffffffffffffffffffffffffffffff021916908373ffffffffffffffffffffffffffffffffffffffff160217905550503460026000828254019250508190555050565b6000809054906101000a900473ffffffffffffffffffffffffffffffffffffffff1681565b60015481565b60045481565b6005818154811015156108c057fe5b90600052602060002090016000915054906101000a900473ffffffffffffffffffffffffffffffffffffffff1681565b60025481565b81548183558181151161091d5781836000526020600020918201910161091c919061098d565b5b505050565b610c80604051908101604052806064905b600073ffffffffffffffffffffffffffffffffffffffff168152602001906001900390816109335790505090565b81548183558181151161098857818360005260206000209182019101610987919061098d565b5b505050565b6109af91905b808211156109ab576000816000905550600101610993565b5090565b905600a165627a7a72305820540fcbdeb8b2198b82184501a0e7049e494424515dfaaec2293a082d947406a00029",
  "source": "pragma solidity 0.4.20;\r\n\r\ncontract Casino {\r\n   address public owner;\r\n   uint256 public minimumBet;\r\n   uint256 public totalBet;\r\n   uint256 public numberOfBets;\r\n   uint256 public maxAmountOfBets = 100;\r\n   address[] public players;\r\n   struct Player {\r\n      uint256 amountBet;\r\n      uint256 numberSelected;\r\n   }\r\n   // The address of the player and => the user info\r\n   mapping(address => Player) public playerInfo;\r\n   function Casino(uint256 _minimumBet) public {\r\n      owner = msg.sender;\r\n      if(_minimumBet != 0 ) minimumBet = _minimumBet;\r\n   }\r\n   function kill() public {\r\n      if(msg.sender == owner) selfdestruct(owner);\r\n   }\r\n\r\n   function checkPlayerExists(address player) public constant returns(bool){\r\n      for(uint256 i = 0; i < players.length; i++){\r\n         if(players[i] == player) return true;\r\n      }\r\n      return false;\r\n   }\r\n\r\n\r\n      // To bet for a number between 1 and 10 both inclusive\r\n   function bet(uint256 numberSelected) public payable {\r\n      require(!checkPlayerExists(msg.sender));\r\n      require(numberSelected >= 1 && numberSelected <= 10);\r\n      require(msg.value >= minimumBet);\r\n      playerInfo[msg.sender].amountBet = msg.value;\r\n      playerInfo[msg.sender].numberSelected = numberSelected;\r\n      numberOfBets++;\r\n      players.push(msg.sender);\r\n      totalBet += msg.value;\r\n   }\r\n\r\n      // Generates a number between 1 and 10 that will be the winner\r\n   function generateNumberWinner() public {\r\n      uint256 numberGenerated = block.number % 10 + 1; // This isn't secure\r\n      distributePrizes(numberGenerated);\r\n   }\r\n\r\n      // Sends the corresponding ether to each winner depending on the total bets\r\n   function distributePrizes(uint256 numberWinner) public {\r\n      address[100] memory winners; // We have to create a temporary in memory array with fixed size\r\n      uint256 count = 0; // This is the count for the array of winners\r\n      for(uint256 i = 0; i < players.length; i++){\r\n         address playerAddress = players[i];\r\n         if(playerInfo[playerAddress].numberSelected == numberWinner){\r\n            winners[count] = playerAddress;\r\n            count++;\r\n         }\r\n         delete playerInfo[playerAddress]; // Delete all the players\r\n      }\r\n      players.length = 0; // Delete all the players array\r\n      uint256 winnerEtherAmount = totalBet / winners.length; // How much each winner gets\r\n      for(uint256 j = 0; j < count; j++){\r\n         if(winners[j] != address(0)) // Check that the address in this fixed array is not empty\r\n         winners[j].transfer(winnerEtherAmount);\r\n      }\r\n      resetData();\r\n   }\r\n\r\n   function resetData() public{\r\n   players.length = 0; // Delete all the players array\r\n   totalBet = 0;\r\n   numberOfBets = 0;\r\n   }\r\n\r\n\r\n}\r\n",
  "sourcePath": "D:\\Grade3_2\\科研\\casino-ethereum\\contracts\\Casino.sol",
  "compiler": {
    "name": "solc",
    "version": "0.4.20+commit.3155dd80.Emscripten.clang"
  },
  "schemaVersion": "3.4.8",
  "updatedAt": "2022-07-23T15:06:04.012Z",
  "devdoc": {
    "methods": {}
  },
  "userdoc": {
    "methods": {}
  }
}